:020000040800F2
:1000000000000120E90E0008390D00083F0D00082E
:10001000450D00084B0D0008510D000800000000C0
:10002000000000000000000000000000570D000864
:10003000630D0008000000006F0D00087B0D000834
:10004000310F0008310F0008310F0008310F000890
:10005000310F0008310F0008310F0008310F000880
:10006000310F0008310F0008310F0008310F000870
:10007000310F0008310F0008310F0008310F000860
:10008000310F0008310F0008310F0008310F000850
:10009000310F0008310F0008310F0008310F000840
:1000A000310F0008310F0008310F0008310F000830
:1000B000310F0008310F0008310F0008310F000820
:1000C000310F0008310F0008310F0008310F000810
:1000D000310F0008310F0008310F0008310F000800
:1000E000310F0008310F0008310F00080000000038
:1000F0000000000000000000000000000000000000
:100100000000000000000000310F0008310F00085F
:10011000890D0008310F0008310F0008310F000869
:10012000310F0008310F0008310F0008310F0008AF
:10013000310F00080000000000000000310F00082F
:10014000310F0008310F0008310F0008310F00088F
:10015000000000000000000000000000000000009F
:10016000000000000000000000000000000000008F
:10017000000000000000000000000000000000007F
:10018000000000000000000000000000000000006F
:10019000000000000000000000000000000000005F
:1001A000000000000000000000000000000000004F
:1001B000000000000000000000000000000000003F
:1001C000000000000000000000000000000000002F
:1001D000000000000000000000000000000000001F
:0401E0005FF8E0F1F3
:1001E40010B5054C237833B9044B13B10448AFF36D
:1001F40000800123237010BD2C03002000000000A8
:10020400703E000808B5034B1BB103490348AFF324
:10021400008008BD0000000030030020703E00088C
:1002240053B94AB9002908BF00281CBF4FF0FF3159
:100234004FF0FF3000F076B9ADF1080C6DE904CE53
:1002440000F006F8DDF804E0DDE9022304B07047AD
:100254002DE9F047089E0D4604468846002B4DD1F3
:100264008A42944668D9B2FA82F252B101FA02F390
:10027400C2F1200120FA01F10CFA02FC41EA030860
:1002840094404FEA1C41B8FBF1F71FFA8CFE01FBC6
:10029400178807FB0EF0230C43EA084398420AD957
:1002A4001CEB030307F1FF3580F01E81984240F2F6
:1002B4001B81023F63441B1AB3FBF1F001FB1033B3
:1002C40000FB0EFEA4B244EA0344A6450AD91CEB83
:1002D400040400F1FF3380F00981A64540F2068151
:1002E400644402380021A4EB0E0440EA07401EB126
:1002F4000023D440C6E90043BDE8F0878B4208D907
:10030400002E00F0EE800021C6E900050846BDE895
:10031400F087B3FA83F100294AD1AB4202D3824277
:1003240000F2FC80841A65EB030301209846002E3A
:10033400E2D0C6E90048DFE702B9FFDEB2FA82F292
:10034400002A40F09180A1EB0C0001214FEA1C47E8
:100354001FFA8CFEB0FBF7F307FB1300250C45EAEC
:1003640000450EFB03F0A84208D91CEB050503F178
:10037400FF3802D2A84200F2CE8043462D1AB5FBC4
:10038400F7F007FB10550EFB00FEA4B244EA054447
:10039400A64508D91CEB040400F1FF3502D2A6459A
:1003A40000F2B6802846A4EB0E0440EA03409EE720
:1003B400C1F120078B4022FA07FC4CEA030C25FA12
:1003C40007FA4FEA1C49BAFBF9F820FA07F309FBCC
:1003D40018AA8D401FFA8CFE1D4300FA01F308FB96
:1003E4000EF02C0C44EA0A44A04202FA01F20BD9A2
:1003F4001CEB040408F1FF3A80F08880A04240F22C
:100404008580A8F102086444241AB4FBF9F009FBBE
:10041400104400FB0EFEADB245EA0444A64508D9DB
:100424001CEB040400F1FF356CD2A6456AD90238EE
:10043400644440EA0840A0FB0295A4EB0E04AC42DD
:10044400C846AE4656D353D0002E69D0B3EB08024B
:1004540064EB0E0422FA01F304FA07F71F43CC40BD
:10046400C6E90074002147E70CFA02FCC2F120013E
:1004740025FA01F34FEA1C4720FA01F195400D4398
:10048400B3FBF7F107FB11331FFA8CFE280C40EA8B
:10049400034001FB0EF3834204FA02F408D91CEB77
:1004A400000001F1FF382FD283422DD90239604474
:1004B400C01AB0FBF7F307FB1300ADB245EA0045E1
:1004C40003FB0EF0A84208D91CEB050503F1FF3825
:1004D40016D2A84214D9023B6544281A43EA0141C2
:1004E40038E73146304607E72F46E4E61846F9E692
:1004F4004B45A9D2B9EB020865EB0C0E0138A3E712
:100504004346EAE7284694E74146D1E7D0467BE7ED
:100514006444023847E7023B65442FE7084606E790
:100524003146E9E6704700BF80B500AF00F000FD3A
:1005340000F086F900F002FA00F0D6F900F088FA2B
:1005440001229C499C4801F072FF9C4B1B78012BB3
:1005540040F06481994B00221A70994B00221A7062
:100564009849994802F0F2FB984B1B781A46954B30
:100574009B5C412B09D1964B1B780133DAB2944B27
:100584001A70944B944A1A6020E0904B1B781A46D8
:100594008C4B9B5C422B09D18D4B1B780133DAB217
:1005A4008B4B1A708B4B8D4A1A600FE0874B1B786C
:1005B4001A46844B9B5C432B08D1854B1B78013333
:1005C400DAB2834B1A70834B854A1A607F4B1B78CF
:1005D4000133DAB27D4B1A707C4B1B781A46794B87
:1005E4001344184602F07CFB03467E4A13607D4B9D
:1005F4001B680F2B00F28E8001A252F823F000BF7B
:1006040045060008590600081907000819070008DC
:10061400190700086D06000881060008190700087C
:10062400190700089506000819070008AB0600081A
:10063400C1060008D7060008ED06000803070008F5
:10064400634B1B780133DAB2614B1A70614B0122A0
:100654009A8063E05E4B1B780133DAB25C4B1A700C
:100664005C4B02229A8059E0594B1B780133DAB271
:10067400574B1A70574B20229A804FE0544B1B78EB
:100684000133DAB2524B1A70524B40229A8045E041
:100694004F4B1B780133DAB24D4B1A704D4B4FF46C
:1006A40000729A803AE04A4B1B780133DAB2484B25
:1006B4001A70484B4FF400629A802FE0444B1B7829
:1006C4000133DAB2424B1A70424B4FF480529A8093
:1006D40024E03F4B1B780133DAB23D4B1A703D4B9B
:1006E4004FF400529A8019E0394B1B780133DAB287
:1006F400374B1A70374B4FF480429A800EE0344BDC
:100704001B780133DAB2324B1A70324B4FF4004289
:100714009A8003E02E4BFF221A7000BF2B4B1B78EC
:100724000133DAB2294B1A70284B1B781A46254B31
:100734009B5C202B05D0254B1B780133DAB2234B6D
:100744001A70224B1B780133DAB2204B1A701F4BFC
:100754001B781A461B4B9B5C482B09D11C4B1B78FE
:100764000133DAB21A4B1A701A4B01229A710FE054
:10077400164B1B781A46134B9B5C4C2B08D1144B1D
:100784001B780133DAB2124B1A70124B00229A71A1
:100794000F4B1B78032B29D1134802F05DFB0D4B43
:1007A4001B680C4A91880B4A9279184601F01AF892
:1007B4001FE000BF48030020480400208D040020EF
:1007C4008C04002090040020883E000800000020D3
:1007D400AC040020B004002000080140000C0140DB
:1007E40000100140A8040020903E00080D4802F0CB
:1007F40033FB0D4B0D4A07CA03C31A80082200219C
:100804000B4802F09BFA0B4B01221A700A4B002290
:100814001A700A4B00221A6000F01AF90A2000F03C
:10082400E9FB92E6A03E0008900400209C0400200E
:10083400B004002000000020AC040020A804002024
:1008440080B594B000AF07F1180338220021184690
:1008540002F074FA3B1D00221A605A609A60DA6052
:100864001A610123BB614FF480333B6204237B6232
:100874000123FB624FF48033FB610223BB634FF41B
:100884008033FB634FF4E0133B6402237B644FF437
:10089400C063BB644023FB6407F11803184600F0EF
:1008A400B9FF0346002B01D000F0B8F90F237B6099
:1008B4000223BB600023FB604FF480633B61002391
:1008C4007B613B1D0221184601F0BAFA0346002B56
:1008D40001D000F0A3F9034B01221A6000BF503786
:1008E400BD4680BD7000424280B500AF114B124A34
:1008F4001A60104B4FF4E1325A600E4B00229A609A
:100904000C4B0022DA600B4B00221A61094B0C22BB
:100914005A61084B00229A61064B0022DA610548AD
:1009240001F0A6FC0346002B01D000F077F900BFCC
:1009340080BD00BF48040020004C004080B588B052
:1009440000AF07F1100300221A605A609A60DA605F
:100954003B4B9B693A4A43F020039361384B9B69B4
:1009640003F02003FB60FB68354B9B69344A43F07A
:1009740004039361324B9B6903F00403BB60BB68BF
:100984002F4B9B692E4A43F0100393612C4B9B69B8
:1009940003F010037B607B68294B9B69284A43F072
:1009A40008039361264B9B6903F008033B603B6893
:1009B40000224021234800F015FF00224FF481510A
:1009C400214800F00FFF00224FF243211F4800F09E
:1009D40009FF01224FF400611C4800F003FF40238B
:1009E4003B6101237B610023BB610223FB6107F1AF
:1009F40010031946134800F071FD4FF481533B6115
:100A040001237B610023BB610223FB6107F1100317
:100A140019460D4800F062FD4FF643233B61012364
:100A24007B610023BB610223FB6107F110031946BC
:100A3400064800F053FD00BF2037BD4680BD00BF0F
:100A4400001002400008014000100140000C014069
:100A540080B500AF4FF6FF733C223E493E4801F09B
:100A640054FC4FF6FF733C223C493B4801F04DFCDB
:100A74004FF6FF733C223A49374801F046FC4FF6E3
:100A8400FF731B223749344801F03FFC4FF6FF73D4
:100A940016223549304801F038FC4FF6FF73162210
:100AA40032492D4801F031FC4FF6FF7316223049CC
:100AB400294801F02AFC4FF6FF7316222D492648D7
:100AC40001F023FC4FF6FF731B222B49224801F04F
:100AD4001CFC4FF6FF73192228491F4801F015FC2E
:100AE4004FF6FF73182226491B4801F00EFC4FF6FF
:100AF400FF731A222349184801F007FC4FF6FF73CD
:100B040019222149144801F000FC4FF6FF731E22FC
:100B14001E49114801F0F9FB4FF6FF7319221C49D5
:100B24000D4801F0F2FB4FF6FF733C2219490A48C5
:100B340001F0EBFB4FF6FF7320221749064801F042
:100B4400E4FB4FF6FF734F221449034801F0DDFB29
:100B540000BF80BD040000204804002044000020A1
:100B640084000020C4000020E0000020F8000020E1
:100B74001001002028010020400100205C01002019
:100B84007801002094010020B0010020CC01002055
:100B9400EC01002008020020480200206C02002022
:100BA40080B582B000AF78600E4B1B780D2B03D15B
:100BB4000D4B01221A700CE00C4B1B781A46094BA2
:100BC40019780B4B9954094B1B780133DAB2074B54
:100BD4001A7001220349074801F029FC00BF0837B5
:100BE400BD4680BD480300208D0400208C040020F5
:100BF400900400204804002080B582B000AF7860E3
:100C0400391D4FF6FF730122034801F07EFB7B6818
:100C140018460837BD4680BD4804002080B400AFA4
:100C240072B600BFFEE7000080B485B000AF154B7C
:100C34009B69144A43F001039361124B9B6903F0CF
:100C44000103BB60BB680F4BDB690E4A43F0805362
:100C5400D3610C4BDB6903F080537B607B680A4BE8
:100C64005B68FB60FB6823F0E063FB60FB6843F0B8
:100C74008063FB60044AFB68536000BF1437BD46C1
:100C840080BC7047001002400000014080B588B06D
:100C940000AF786007F1100300221A605A609A606E
:100CA400DA607B681B68204A934239D11F4BDB69A9
:100CB4001E4A43F40023D3611C4BDB6903F4002375
:100CC400FB60FB68194B9B69184A43F0100393615E
:100CD400164B9B6903F01003BB60BB684FF4806341
:100CE4003B6102237B610323FB6107F11003194677
:100CF4000F4800F0F3FB4FF400633B6100237B617A
:100D04000023BB6107F110031946094800F0E6FB14
:100D140000220021342000F068FA342000F081FA27
:100D240000BF2037BD4680BD004C0040001002408B
:100D34000010014080B400AFFEE780B400AFFEE7CE
:100D440080B400AFFEE780B400AFFEE780B400AF2C
:100D5400FEE780B400AF00BFBD4680BC704780B4DE
:100D640000AF00BFBD4680BC704780B400AF00BF79
:100D7400BD4680BC704780B500AF00F01FF900BFCE
:100D840080BD000080B500AF024801F081FB00BFC8
:100D940080BD00BF4804002080B586B000AFF86075
:100DA400B9607A6000237B610AE0AFF300800146FA
:100DB400BB685A1CBA60CAB21A707B6901337B6182
:100DC4007A697B689A42F0DB7B6818461837BD461F
:100DD40080BD80B586B000AFF860B9607A6000234A
:100DE4007B6109E0BB685A1CBA601B781846FFF7A0
:100DF40003FF7B6901337B617A697B689A42F1DB8B
:100E04007B6818461837BD4680BD80B483B000AFF8
:100E140078604FF0FF3318460C37BD4680BC7047EE
:100E240080B483B000AF786039603B684FF40052FF
:100E34005A60002318460C37BD4680BC704780B406
:100E440083B000AF7860012318460C37BD4680BCE0
:100E5400704780B485B000AFF860B9607A60002351
:100E640018461437BD4680BC7047000080B586B074
:100E740000AF7860144A154BD31A7B617B693B61E0
:100E8400134B1B68002B02D1114B124A1A60104BF2
:100E94001A687B6813443A699A4207D201F024FF26
:100EA40003460C221A604FF0FF3309E0084B1B681D
:100EB400FB60074B1A687B681344054A1360FB68A0
:100EC40018461837BD4680BD00000120000400000C
:100ED400B8040020D004002080B400AF00BFBD4699
:100EE40080BC70470C480D490D4A002302E0D458D9
:100EF400C4500433C4188C42F9D30A4A0A4C002360
:100F040001E013600432A242FBD3FFF7E5FF01F0D6
:100F1400F1FEFFF709FB7047000000202C030020BE
:100F2400984000082C030020D0040020FEE70000B5
:100F340080B500AF084B1B68074A43F010031360E9
:100F4400032000F047F90F2000F008F8FFF76CFECB
:100F54000023184680BD00BF0020024080B582B047
:100F640000AF7860124B1A68124B1B7819464FF485
:100F74007A73B3FBF1F3B2FBF3F3184600F05FF9B5
:100F84000346002B01D001230EE07B680F2B0AD807
:100F9400002279684FF0FF3000F027F9064A7B6899
:100FA4001360002300E0012318460837BD4680BDC6
:100FB400BC020020C4020020C002002080B400AFA4
:100FC400054B1B781A46054B1B681344034A1360F0
:100FD40000BFBD4680BC7047C4020020BC04002092
:100FE40080B400AF024B1B681846BD4680BC7047F6
:100FF400BC04002080B584B000AF7860FFF7F0FF38
:10100400B8607B68FB60FB68B3F1FF3F05D00A4B17
:101014001B781A46FB681344FB6000BFFFF7E0FF30
:101024000246BB68D31AFA689A42F7D800BF00BFD9
:101034001037BD4680BD00BFC402002080B485B017
:1010440000AF78607B6803F00703FB600C4BDB6840
:10105400BB60BA684FF6FF031340BB60FB681A021B
:10106400BB68134343F0BF6343F40033BB60044ADB
:10107400BB68D36000BF1437BD4680BC704700BF57
:1010840000ED00E080B400AF044BDB681B0A03F002
:1010940007031846BD4680BC704700BF00ED00E062
:1010A40080B483B000AF0346FB7197F90730002B7F
:1010B4000BDBFB7903F01F02064997F907305B0944
:1010C400012000FA02F241F8232000BF0C37BD468C
:1010D40080BC704700E100E080B483B000AF0346F9
:1010E4003960FB7197F90730002B0ADB3B68DAB2F1
:1010F4000C4997F907301201D2B20B4483F800234C
:101104000AE03B68DAB20849FB7903F00F03043BB9
:101114001201D2B20B441A7600BF0C37BD4680BC14
:10112400704700BF00E100E000ED00E080B489B04A
:1011340000AFF860B9607A60FB6803F00703FB61F5
:10114400FB69C3F10703042B28BF0423BB61FB69BC
:101154000433062B02D9FB69033B00E000237B61C7
:101164004FF0FF32BB6902FA03F3DA43BB681A405B
:101174007B699A404FF0FF317B6901FA03F3D9434D
:101184007B680B40134318462437BD4680BC704728
:1011940080B582B000AF78607B68013BB3F1807F9B
:1011A40001D301230FE00A4A7B68013B53600F21FE
:1011B4004FF0FF30FFF790FF054B00229A60044B7D
:1011C40007221A60002318460837BD4680BD00BFB9
:1011D40010E000E080B582B000AF78607868FFF777
:1011E4002DFF00BF0837BD4680BD80B586B000AF77
:1011F4000346B9607A60FB7300237B61FFF742FF0B
:1012040078617A68B9687869FFF790FF024697F9C0
:101214000F3011461846FFF75FFF00BF1837BD4671
:1012240080BD80B582B000AF0346FB7197F90730EB
:101234001846FFF735FF00BF0837BD4680BD80B5AF
:1012440082B000AF78607868FFF7A2FF03461846C3
:101254000837BD4680BD80B485B000AF78600023F8
:10126400FB737B6893F82130022B08D07B6804223F
:101274009A637B68002283F82020012320E07B68A6
:101284001B681A687B681B6822F00E021A607B6870
:101294001B681A687B681B6822F001021A607B686D
:1012A4001A6C7B68DB6B012101FA02F25A607B68DD
:1012B400012283F821207B68002283F82020FB7B15
:1012C40018461437BD4680BC7047000080B584B012
:1012D40000AF78600023FB737B6893F82130022B06
:1012E40005D07B6804229A630123FB73D6E07B68F4
:1012F4001B681A687B681B6822F00E021A607B6800
:101304001B681A687B681B6822F001021A607B68FC
:101314001B681A46644B9A4258D97B681B68634A17
:1013240093424FD07B681B68614A934248D07B68E4
:101334001B68604A934240D07B681B685E4A9342B4
:1013440038D07B681B685D4A934230D07B681B6849
:101354005B4A934228D07B681B68534A934220D04F
:101364007B681B68574A934219D07B681B68564AAE
:10137400934212D07B681B68544A93420AD07B681C
:101384001B68534A934202D14FF480531BE04FF43D
:10139400803318E04FF4807315E0102313E0012329
:1013A40011E04FF080730EE04FF480130BE04FF424
:1013B400803308E04FF4805305E04FF4807302E07B
:1013C400102300E00123434A536057E07B681B6805
:1013D400364A93424FD07B681B68354A934248D0C3
:1013E4007B681B68334A934240D07B681B68324A4F
:1013F400934238D07B681B68304A934230D07B6874
:101404001B682F4A934228D07B681B68264A934264
:1014140020D07B681B682B4A934219D07B681B68D9
:10142400294A934212D07B681B68284A93420AD007
:101434007B681B68264A934202D14FF480531BE019
:101444004FF4803318E04FF4807315E0102313E059
:10145400012311E04FF080730EE04FF480130BE092
:101464004FF4803308E04FF4805305E04FF4807369
:1014740002E0102300E00123174A53607B68012235
:1014840083F821207B68002283F820207B685B6B33
:10149400002B03D07B685B6B78689847FB7B18460E
:1014A4001037BD4680BD00BF8000024008000240E6
:1014B4001C00024030000240440002405800024038
:1014C4006C000240080402401C0402403004024044
:1014D40044040240000402400000024080B48BB087
:1014E40000AF7860396000237B6200233B6269E1CE
:1014F40001227B6A02FA03F3FB613B681B68FA6909
:101504001340BB61BA69FB699A4240F058813B6859
:101514005B689A4A93425ED0984A934275D8984A37
:10152400934258D0964A93426FD8964A934252D0E7
:10153400944A934269D8944A93424CD0924A934233
:1015440063D8924A934246D0904A93425DD8122B74
:101554002AD8122B59D801A252F823F0DB1500081F
:10156400B5150008C7150008091600080F1600086D
:101574000F1600080F1600080F1600080F160008B3
:101584000F1600080F1600080F1600080F160008A3
:101594000F1600080F1600080F1600080F16000893
:1015A400BD150008D1150008794A934213D02CE0E8
:1015B4003B68DB683B6229E03B68DB6804333B62E1
:1015C40024E03B68DB6808333B621FE03B68DB6870
:1015D4000C333B621AE03B689B68002B02D1042366
:1015E4003B6213E03B689B68012B05D108233B62F7
:1015F4007B68FA691A6109E008233B627B68FA692F
:101604005A6103E000233B6200E000BFBB69FF2B8B
:1016140001D87B6801E07B6804337B61BB69FF2BE5
:1016240002D87B6A9B0002E07B6A083B9B003B611B
:101634007B691A680F213B6901FA03F3DB431A4003
:10164400396A3B6901FA03F31A437B691A603B6800
:101654005B6803F08053002B00F0B1804D4B9B6915
:101664004C4A43F0010393614A4B9B6903F0010325
:10167400BB60BB68484A7B6A9B08023352F823303C
:10168400FB607B6A03F003039B000F2202FA03F35F
:10169400DB43FA681340FB607B68404A934213D0F3
:1016A4007B683F4A93420DD07B683E4A934207D001
:1016B4007B683D4A934201D1032306E0042304E0FE
:1016C400022302E0012300E000237A6A02F003020D
:1016D40092009340FA681343FB602F497B6A9B088E
:1016E4000233FA6841F823203B685B6803F48033D3
:1016F400002B06D02D4B1A682C49BB6913430B6091
:1017040006E02A4B1A68BB69DB43284913400B6087
:101714003B685B6803F40033002B06D0234B5A6804
:101724002249BB6913434B6006E0204B5A68BB69EE
:10173400DB431E4913404B603B685B6803F4801332
:10174400002B06D0194B9A681849BB6913438B6068
:1017540006E0164B9A68BB69DB43144913408B605F
:101764003B685B6803F40013002B21D00F4BDA684D
:101774000E49BB691343CB6021E000BF0000321067
:10178400000031100000221000002110000012108F
:101794000000111000100240000001400008014048
:1017A400000C0140001001400014014000040140FD
:1017B4000B4BDA68BB69DB4309491340CB607B6A96
:1017C40001337B623B681A687B6A22FA03F3002BBD
:1017D4007FF48EAE00BF00BF2C37BD4680BC70477F
:1017E4000004014080B483B000AF78600B467B8076
:1017F40013467B707B78002B03D07A887B681A6150
:1018040003E07B881A047B681A6100BF0C37BD466D
:1018140080BC704780B586B000AF78607B68002BD1
:1018240001D1012304E37B681B6803F00103002B4F
:1018340000F08780924B5B6803F00C03042B0CD000
:101844008F4B5B6803F00C03082B12D18C4B5B6845
:1018540003F48033B3F5803F0BD1894B1B6803F449
:101864000033002B6CD07B689B68002B68D101236C
:10187400DEE27B689B68B3F5803F06D1804B1B6832
:101884007F4A43F4803313602EE07B689B68002B0F
:101894000CD17B4B1B687A4A23F480331360784B5A
:1018A4001B68774A23F4802313601DE07B689B68E0
:1018B400B3F5A02F0CD1724B1B68714A43F48023FB
:1018C40013606F4B1B686E4A43F4803313600BE064
:1018D4006B4B1B686A4A23F480331360684B1B68A4
:1018E400674A23F4802313607B689B68002B13D022
:1018F400FFF776FB386108E0FFF772FB02463B69AD
:10190400D31A642B01D9032392E25D4B1B6803F4C1
:101914000033002BF0D014E0FFF762FB386108E0DD
:10192400FFF75EFB02463B69D31A642B01D90323FC
:101934007EE2534B1B6803F40033002BF0D100E02C
:1019440000BF7B681B6803F00203002B63D04C4B81
:101954005B6803F00C03002B0BD0494B5B6803F06E
:101964000C03082B1CD1464B5B6803F48033002B1B
:1019740016D1434B1B6803F00203002B05D07B6890
:101984005B69012B01D0012352E23D4B1B6823F01C
:10199400F8027B689B69DB00394913430B603AE02A
:1019A4007B685B69002B20D0364B01221A60FFF75D
:1019B40017FB386108E0FFF713FB02463B69D31AB3
:1019C400022B01D9032333E22D4B1B6803F00203DE
:1019D400002BF0D02A4B1B6823F0F8027B689B692C
:1019E400DB00274913430B6015E0264B00221A60E5
:1019F400FFF7F6FA386108E0FFF7F2FA02463B69AE
:101A0400D31A022B01D9032312E21D4B1B6803F0E6
:101A14000203002BF0D17B681B6803F00803002B42
:101A24003AD07B68DB69002B19D0174B01221A606E
:101A3400FFF7D6FA386108E0FFF7D2FA02463B69AD
:101A4400D31A022B01D90323F2E10D4B5B6A03F095
:101A54000203002BF0D0012000F0ECFB1CE00A4B49
:101A640000221A60FFF7BCFA38610FE0FFF7B8FAFA
:101A740002463B69D31A022B08D90323D8E100BFDD
:101A84000010024000004242800442429B4B5B6AC9
:101A940003F00203002BE9D17B681B6803F0040305
:101AA400002B00F0A6800023FB75944BDB6903F048
:101AB4008053002B0DD1914BDB69904A43F0805346
:101AC400D3618E4BDB6903F08053BB60BB68012399
:101AD400FB758B4B1B6803F48073002B18D1884B68
:101AE4001B68874A43F480731360FFF779FA3861FF
:101AF40008E0FFF775FA02463B69D31A642B01D953
:101B0400032395E17E4B1B6803F48073002BF0D014
:101B14007B681B69012B06D1784B1B6A774A43F01B
:101B2400010313622DE07B681B69002B0CD1734BFE
:101B34001B6A724A23F001031362704B1B6A6F4ADB
:101B440023F0040313621CE07B681B69052B0CD192
:101B54006A4B1B6A694A43F004031362674B1B6AAE
:101B6400664A43F0010313620BE0644B1B6A634A49
:101B740023F001031362614B1B6A604A23F00403E0
:101B840013627B681B69002B15D0FFF729FA3861B3
:101B94000AE0FFF725FA02463B69D31A41F288327C
:101BA400934201D9032343E1544B1B6A03F002031C
:101BB400002BEED014E0FFF713FA38610AE0FFF7C8
:101BC4000FFA02463B69D31A41F28832934201D993
:101BD40003232DE1494B1B6A03F00203002BEED1D2
:101BE400FB7D012B05D1454BDB69444A23F080532F
:101BF400D3617B68DB6A002B00F08C803F4B5B6811
:101C040003F48033B3F5803F0ED13C4B5B6803F0A3
:101C14000C03082B08D1394BDB6A03F48033B3F58A
:101C2400803F01D1012303E17B68DB6A022B4ED1A3
:101C3400324B1B6803F08053002B09D02F4BDB6A17
:101C440003F0F0027B685B6B9A4201D00123EFE062
:101C54002C4B00221A60FFF7C3F9386108E0FFF744
:101C6400BFF902463B69D31A642B01D90323DFE091
:101C7400224B1B6803F00063002BF0D11F4BDB6A7F
:101C840023F0F0027B685B6B1C491343CB621B4B54
:101C9400DB6A23F470627B681B6B18491343CB62C5
:101CA400184B01221A60FFF79BF9386108E0FFF72F
:101CB40097F902463B69D31A642B01D90323B7E091
:101CC4000E4B1B6803F00063002BF0D022E00B4B9B
:101CD400DB6A0A4A23F48033D3620A4B00221A6077
:101CE400FFF77EF938610FE0FFF77AF902463B69A6
:101CF400D31A642B08D903239AE000BF00100240D2
:101D040000700040680042424B4B1B6803F00063C4
:101D1400002BE9D17B681B6A002B00F08880464BBE
:101D24005B6803F00C03082B68D07B681B6A022BEA
:101D34004DD1424B00221A60FFF752F9386108E096
:101D4400FFF74EF902463B69D31A022B01D903234C
:101D54006EE0394B1B6803F00073002BF0D17B68F5
:101D64005B6AB3F5803F0FD1334BDA6A7B685B68FB
:101D740031491343CB62304BDB6A23F00F027B689B
:101D8400DB682D491343CB622B4B5B6823F474123D
:101D94007B68596A7B689B6A0B43274913434B60F2
:101DA400264B01221A60FFF71BF9386108E0FFF7A0
:101DB40017F902463B69D31A022B01D9032337E0F2
:101DC4001D4B1B6803F00073002BF0D02FE01B4B5E
:101DD40000221A60FFF704F9386108E0FFF700F900
:101DE40002463B69D31A022B01D9032320E0124B8C
:101DF4001B6803F00073002BF0D118E07B681B6AAA
:101E0400012B01D1012313E00B4B5B68FB60FB68E2
:101E140003F480327B685B6A9A4206D1FB6803F460
:101E240070127B689B6A9A4201D0012300E0002370
:101E340018461837BD4680BD00100240600042427B
:101E440080B584B000AF786039607B68002B01D125
:101E54000123D0E06A4B1B6803F007033A689A42F7
:101E640010D9674B1B6823F0070265493B6813438D
:101E74000B60634B1B6803F007033A689A4201D076
:101E84000123B8E07B681B6803F00203002B20D019
:101E94007B681B6803F00403002B05D0594B5B6877
:101EA400584A43F4E06353607B681B6803F00803FB
:101EB400002B05D0534B5B68524A43F46053536084
:101EC400504B5B6823F0F0027B689B684D491343D9
:101ED4004B607B681B6803F00103002B40D07B68D8
:101EE4005B68012B07D1474B1B6803F40033002BBD
:101EF40015D101237FE07B685B68022B07D1414B3E
:101F04001B6803F00073002B09D1012373E03D4BE0
:101F14001B6803F00203002B01D101236BE0394B52
:101F24005B6823F003027B685B68364913434B60AC
:101F3400FFF756F8F8600AE0FFF752F80246FB682C
:101F4400D31A41F28832934201D9032353E02D4B33
:101F54005B6803F00C027B685B689B009A42EBD1E0
:101F6400274B1B6803F007033A689A4210D2244BAC
:101F74001B6823F0070222493B6813430B60204B84
:101F84001B6803F007033A689A4201D0012332E048
:101F94007B681B6803F00403002B08D0194B5B68B3
:101FA40023F4E0627B68DB68164913434B607B686B
:101FB4001B6803F00803002B09D0124B5B6823F461
:101FC40060527B681B69DB000E4913434B6000F0D1
:101FD40021F802460B4B5B681B0903F00F030A4907
:101FE400CB5C22FA03F3094A1360094B1B681846B9
:101FF400FEF7B4FF002318461037BD4680BD00BF6E
:102004000020024000100240D43E0008BC02002020
:10201400C00200202DE9F04F99B000AF664B07F1E4
:1020240034040FCB07C42380644B07F124040FCB83
:1020340084E80F0000237B6500233B650023FB65D8
:102044000023FB640023BB650023BB6400237B6483
:102054005B4B5B687B657B6D03F00C03042B02D048
:10206400082B03D09FE0574BBB659FE07B6D9B0C17
:1020740003F00F03403307F12002134413F82C3C00
:10208400FB647B6D03F48033002B00F084804C4BA5
:10209400DB6A03F00F03403307F12002134413F803
:1020A4003C3C3B65464BDB6A03F48033002B60D039
:1020B400434BDB6A1B0903F00F030133BB64404B42
:1020C400DB6A1B0A03F00F0302337B647B6C002280
:1020D4003B617A61FB6C0022BB61FA61D7E904348D
:1020E4002246D7E9060184460CFB02F2C7E9060141
:1020F4008C4618462146034603FB0CF31344024660
:10210400B969A2FB01894B4499462E4B03FB09F2A2
:10211400002303FB08F313442A4AA8FB02AB5B44E5
:102124009B46BB6C0022BB60FA603B6D00223B60A7
:102134007A60D7E902342246D7E90089414601FB97
:1021440002F2CC4618462146034603FB0CF3134423
:1021540002464146A2FB015633441E462A463346F4
:1021640050465946FEF75CF802460B461346FB659B
:1021740007E0FB6C134A03FB02F23B6DB2FBF3F383
:10218400FB6597F841301A46FB6C934208D1FB6D0E
:102194005B08FB6504E0FB6C0B4A02FB03F3FB6585
:1021A400FB6DBB6502E0094BBB6500BFBB6D184608
:1021B4006437BD46BDE8F08FB43E0008C43E000855
:1021C4000010024040787D0100093D0000127A00B1
:1021D40080B400AF024B1B681846BD4680BC7047F4
:1021E400BC02002080B500AFFFF7F2FF0246054BAA
:1021F4005B681B0A03F007030349CB5C22FA03F371
:10220400184680BD00100240E43E000880B500AFCF
:10221400FFF7DEFF0246054B5B68DB0A03F00703AA
:102224000349CB5C22FA03F3184680BD0010024038
:10223400E43E000880B485B000AF78600A4B1B68A8
:102244000A4AA2FB03235B0A7A6802FB03F3FB60DE
:1022540000BFFB685A1EFA60002BF9D100BF00BF13
:102264001437BD4680BC7047BC020020D34D6210B9
:1022740080B582B000AF78607B68002B01D1012368
:102284003FE07B6893F83D30DBB2002B06D17B68DE
:10229400002283F83C207868FEF7F8FC7B6824224F
:1022A40083F83D207B681B68DA687B681B6822F42E
:1022B4000052DA60786800F085FC7B681B681A6954
:1022C4007B681B6822F490421A617B681B685A6918
:1022D4007B681B6822F02A025A617B681B68DA68F3
:1022E4007B681B6842F40052DA607B6800221A643F
:1022F4007B68202283F83D207B68202283F83E20DF
:10230400002318460837BD4680BD80B58AB002AFA9
:10231400F860B9603B601346FB8000237B61FB6877
:1023240093F83D30DBB2202B7CD1BB68002B02D06C
:10233400FB88002B01D1012375E0FB6893F83C3046
:10234400012B01D102236EE0FB68012283F83C20BB
:10235400FB6800221A64FB68212283F83D20FEF703
:102364003FFE7861FB68FA889A84FB68FA88DA840D
:10237400FB689B68B3F5805F08D1FB681B69002B81
:1023840004D10023FB61BB68BB6103E0BB68FB6154
:102394000023BB61FB68002283F83C202AE03B68F1
:1023A40000937B6900228021F86800F038FA034624
:1023B400002B01D0032336E0FB69002B0BD1BB6952
:1023C4001B881A46FB681B68C2F308025A60BB6983
:1023D4000233BB6107E0FB691A78FB681B685A602B
:1023E400FB690133FB61FB68DB8C9BB2013B9AB256
:1023F400FB68DA84FB68DB8C9BB2002BCFD13B6893
:1024040000937B6900224021F86800F008FA034633
:10241400002B01D0032306E0FB68202283F83D2033
:10242400002300E0022318462037BD4680BD80B556
:1024340084B000AFF860B9601346FB80FB6893F882
:102444003E30DBB2202B1DD1BB68002B02D0FB88B1
:10245400002B01D1012316E0FB6893F83C30012BDB
:1024640001D102230FE0FB68012283F83C20FB68C2
:1024740000221A63FB881A46B968F86800F019FA52
:10248400034600E0022318461037BD4680BD000015
:1024940080B58AB000AF78607B681B681B687B627C
:1024A4007B681B68DB683B627B681B685B69FB615C
:1024B4000023BB6100237B617B6A03F00F03BB61D4
:1024C400BB69002B0DD17B6A03F02003002B08D0DD
:1024D4003B6A03F02003002B03D0786800F0C9FAAC
:1024E4007BE1BB69002B00F0B180FB6903F00103C1
:1024F400002B05D13B6A03F49073002B00F0A680F7
:102504007B6A03F00103002B0AD03B6A03F4807357
:10251400002B05D07B681B6C43F001027B681A64B6
:102524007B6A03F00403002B0AD0FB6903F0010368
:10253400002B05D07B681B6C43F002027B681A6495
:102544007B6A03F00203002B0AD0FB6903F001034A
:10255400002B05D07B681B6C43F004027B681A6473
:102564007B6A03F00803002B0FD03B6A03F02003BF
:10257400002B04D1FB6903F00103002B05D07B6819
:102584001B6C43F008027B681A647B681B6C002B8D
:1025940000F01E817B6A03F02003002B07D03B6A06
:1025A40003F02003002B02D0786800F062FA7B6805
:1025B4001B685B6903F04003002B14BF0123002355
:1025C400DBB27B617B681B6C03F00803002B02D138
:1025D4007B69002B31D0786800F0A4F97B681B6814
:1025E4005B6903F04003002B23D07B681B685A69A6
:1025F4007B681B6822F040025A617B689B6B002B4E
:1026040013D07B689B6B764A5A637B689B6B184636
:10261400FEF75CFE0346002B16D07B689B6B5B6B5E
:102624007A68926B104698470EE0786800F0E3F8F9
:102634000AE0786800F0DFF806E0786800F0DBF87C
:102644007B6800221A64C3E000BFC1E07B681B6B97
:10265400012B40F0A1807B6A03F01003002B00F0F3
:102664009B803B6A03F01003002B00F0958000234D
:10267400FB607B681B681B68FB607B681B685B688E
:10268400FB60FB687B681B685B6903F04003002BFD
:102694004ED07B689B6B1B685B683B823B8A002B3C
:1026A40000F098807B689B8D3A8A9A4280F09280F1
:1026B4007B683A8ADA857B689B6B9B69202B2BD0DD
:1026C4007B681B68DA687B681B6822F48072DA60B6
:1026D4007B681B685A697B681B6822F001025A6197
:1026E4007B681B685A697B681B6822F040025A6148
:1026F4007B68202283F83E207B6800221A637B6873
:102704001B68DA687B681B6822F01002DA607B6859
:102714009B6B1846FEF79FFD7B689A8D7B68DB8D6B
:102724009BB2D31A9BB21946786800F06DF851E059
:102734007B689A8D7B68DB8D9BB2D31A7B827B6826
:10274400DB8D9BB2002B47D07B8A002B44D07B6867
:102754001B68DA687B681B6822F49072DA607B6815
:102764001B685A697B681B6822F001025A617B6806
:10277400202283F83E207B6800221A637B681B6852
:10278400DA687B681B6822F01002DA607B8A1946DB
:10279400786800F039F81FE07B6A03F08003002BAF
:1027A40008D03B6A03F08003002B03D0786800F064
:1027B400F9F812E07B6A03F04003002B0DD03B6A6A
:1027C40003F04003002B08D0786800F03AF904E0E5
:1027D40000BF02E000BF00E000BF2837BD4680BD57
:1027E4008129000880B483B000AF786000BF0C3743
:1027F400BD4680BC704780B483B000AF786000BF32
:102804000C37BD4680BC704780B483B000AF78609D
:102814000B467B8000BF0C37BD4680BC704780B53B
:1028240084B000AFF860B9603B601346FB712CE0E4
:10283400BB69B3F1FF3F28D0BB69002B07D0FEF77B
:10284400CFFB02463B68D31ABA699A421DD2FB6891
:102854001B68DA68FB681B6822F4D072DA60FB68D4
:102864001B685A69FB681B6822F001025A61FB6805
:10287400202283F83D20FB68202283F83E20FB6859
:10288400002283F83C2003230FE0FB681B681A68CE
:10289400BB681340BA689A420CBF01230023DBB221
:1028A4001A46FB799A42C3D0002318461037BD4616
:1028B40080BD80B485B000AFF860B9601346FB807A
:1028C400FB68BA689A62FB68FA889A85FB68FA889A
:1028D400DA85FB6800221A64FB68222283F83E2012
:1028E400FB68002283F83C20FB681B68DA68FB68FD
:1028F4001B6842F48072DA60FB681B685A69FB68E3
:102904001B6842F001025A61FB681B68DA68FB68C5
:102914001B6842F02002DA60002318461437BD46D3
:1029240080BC704780B483B000AF78607B681B685C
:10293400DA687B681B6822F49072DA607B681B6833
:102944005A697B681B6822F001025A617B681B6B21
:10295400012B07D17B681B68DA687B681B6822F04F
:102964001002DA607B68202283F83E207B68002214
:102974001A6300BF0C37BD4680BC704780B584B075
:1029840000AF78607B685B6AFB60FB680022DA85D5
:10299400FB680022DA84F868FFF72DFF00BF1037C8
:1029A400BD4680BD80B485B000AF78607B6893F885
:1029B4003D30DBB2212B3ED17B689B68B3F5805F51
:1029C40014D17B681B69002B10D17B681B6AFB60E8
:1029D400FB681B881A467B681B68C2F308025A60AE
:1029E4007B681B6A9A1C7B681A6208E07B681B6A16
:1029F400591C7A6811621A787B681B685A607B6874
:102A0400DB8C9BB2013B9BB27A681946D184002BC4
:102A14000FD17B681B68DA687B681B6822F0800230
:102A2400DA607B681B68DA687B681B6842F04002E6
:102A3400DA60002300E0022318461437BD4680BC48
:102A4400704780B582B000AF78607B681B68DA6835
:102A54007B681B6822F04002DA607B68202283F8DE
:102A64003D207868FFF7BEFE002318460837BD46B0
:102A740080BD80B586B000AF78607B6893F83E3047
:102A8400DBB2222B40F099807B689B68B3F5805FB2
:102A940017D17B681B69002B13D100237B617B68F2
:102AA4009B6A3B617B681B685B689BB2C3F308034A
:102AB4009AB23B691A807B689B6A9A1C7B689A620B
:102AC40026E07B689B6A7B6100233B617B689B6893
:102AD400B3F5805F07D07B689B68002B0AD17B68C5
:102AE4001B69002B06D17B681B685B68DAB27B69C3
:102AF4001A7008E07B681B685B68DBB203F07F0335
:102B0400DAB27B691A707B689B6A5A1C7B689A628A
:102B14007B68DB8D9BB2013B9BB27A681946D185F9
:102B2400002B48D17B681B68DA687B681B6822F03D
:102B34002002DA607B681B68DA687B681B6822F411
:102B44008072DA607B681B685A697B681B6822F0B4
:102B540001025A617B68202283F83E207B681B6B4C
:102B6400012B23D17B6800221A637B681B68DA6817
:102B74007B681B6822F01002DA607B681B681B68A4
:102B840003F01003102B0AD10023FB607B681B6841
:102B94001B68FB607B681B685B68FB60FB687B6889
:102BA4009B8D19467868FFF72FFE02E07868FDF7E1
:102BB400F7FF002302E0002300E002231846183741
:102BC400BD4680BD80B584B000AF78607B681B686B
:102BD4001B6923F440517B68DA687B681B680A43ED
:102BE4001A617B689A687B681B691A437B685B6916
:102BF4001343BB607B681B68DB6823F4B05323F08A
:102C04000C037A681268B9680B43D3607B681B684D
:102C14005B6923F440717B689A697B681B680A438B
:102C24005A617B681B682C4A934203D1FFF7EEFA82
:102C3400F86002E0FFF7D6FAF860FA6813469B00E2
:102C440013449A001A447B685B689B00B2FBF3F35D
:102C5400224AA2FB03235B091901FA6813469B006D
:102C640013449A001A447B685B689B00B2FBF3F23E
:102C74001A4BA3FB02035B09642000FB03F3D31A82
:102C84001B013233154AA2FB03235B0903F0F00353
:102C94001944FA6813469B0013449A001A447B684B
:102CA4005B689B00B2FBF3F20C4BA3FB02035B09D2
:102CB400642000FB03F3D31A1B013233074AA2FB3F
:102CC40003235B0903F00F027B681B680A449A60C4
:102CD40000BF1037BD4680BD003801401F85EB5151
:102CE4000A22002100F03CB9014B1868704700BF6C
:102CF400C802002070B500260C4D0D4C641BA410B6
:102D0400A64209D101F0B2F800260A4D0A4C641B10
:102D1400A410A64205D170BD55F8043B984701366E
:102D2400EEE755F8043B98470136F2E79040000877
:102D34009040000890400008944000080346024474
:102D4400934200D1704703F8011BF9E70FB40A4B13
:102D540013B51C6824B1A36913B9204600F0E0FA46
:102D640005AB2046049AA168019300F0E3FC02B08D
:102D7400BDE8104004B07047C802002070B50E468C
:102D8400054618B183690BB900F0CAFAAB69AC689F
:102D940013B9284600F0C4FA2C4B9C4220D16C682D
:102DA400636EDB0705D4A389980502D4A06D00F0F7
:102DB40055FBA38919071DD52369DBB1013EA3681F
:102DC40016F8011F013BA36039BB002B38DA2246F9
:102DD4000A21284600F0CEF8013011D00A2511E06E
:102DE4001B4B9C4201D1AC68DAE71A4B9C4208BFEA
:102DF400EC68D5E72146284600F00EF90028DDD01E
:102E04004FF0FF35636EDA0705D4A3899B0502D41E
:102E1400A06D00F024FB284670BD002B04DAA269E3
:102E24009A4206DC0A2904D023685A1C22601970CD
:102E3400C5E72246284600F09DF80130BFD1DFE700
:102E44000A2523685A1C22601D70DBE71440000821
:102E540034400008F43F0008024B01461868FFF7AD
:102E64008DBF00BFC8020020012B2DE9F04780462A
:102E740001D0242B06D9FFF737FF16230360002067
:102E8400BDE8F0870D46354F284615F8014BE65D41
:102E940016F00806F8D12D2C2FD101262C78851C8C
:102EA400002B57D0102B09D1302C07D1287800F0F3
:102EB400DF00582849D110236C780235002706F129
:102EC400004E0EF1FF3EBEFBF3F9384603FB19EA50
:102ED400A4F1300CBCF1090F14D86446A34222DDDE
:102EE400002F1DDB81451BD301D1A24518DB01272F
:102EF40000FB034015F8014BEAE72B2C04BF2C78A8
:102F0400851CCDE7A4F1410CBCF1190F01D8373C65
:102F1400E4E7A4F1610CBCF1190F04D8573CDDE7D8
:102F24004FF0FF37E6E7002F07DA22237046C8F890
:102F34000030002AA4D0691E05E006B14042002AF0
:102F44009ED0002FF7D111609AE73024002BB5D121
:102F54000823B3E7302CA9D00A23AFE7F13E0008D9
:102F640013460A46014602480068FFF77DBF00BFCA
:102F7400C8020020F8B50E461446054618B1836908
:102F84000BB900F0CDF9214B9C422BD16C68A3699D
:102F9400A360A3891A072FD523696BB3236920681B
:102FA400F6B2C01A63693746834204DC21462846D8
:102FB40000F022F930BBA3680130013BA360236811
:102FC4005A1C22601E706369834204D0A389DB0704
:102FD40006D50A2E04D12146284600F00DF988B9F9
:102FE4003846F8BD0A4B9C4201D1AC68CFE7094B87
:102FF4009C4208BFEC68CAE72146284600F00CF85A
:103004000028CBD04FF0FF37EAE700BF1440000898
:1030140034400008F43F0008324B70B51D68064682
:103024000C4625B1AB6913B9284600F079F92E4B4B
:103034009C420FD16C68A389B4F90C2019072CD4D5
:10304400DD0611D40923336042F040034FF0FF3012
:10305400A3813EE0254B9C4201D1AC68EBE7244BB5
:103064009C4208BFEC68E6E7580712D5616B41B192
:1030740004F14403994202D0304600F057FA002389
:103084006363A38923F02403A3810023636023697A
:103094002360A38943F00803A38123694BB9A3895F
:1030A40003F42073B3F5007F03D02146304600F0CB
:1030B400FDF9A089B4F90C2010F001030AD0002313
:1030C400A36063695B42A361236943B910F0800084
:1030D400BAD170BD810758BF6369A360F4E70020CB
:1030E400F7E700BFC802002014400008344000087D
:1030F400F43F00088A89F8B5054610070C4657D4F2
:103104004B68002B04DC0B6C002B01DC0020F8BDA9
:10311400E66A002EFAD0002312F480522F682B6046
:1031240032D0606DA3895A0705D56368C01A636BF2
:103134000BB1236CC01A00230246E66A2846216AB2
:10314400B047431CA38906D129681D292CD8294AD4
:10315400CA40D60728D5002262602269D9042260B9
:1031640004D5421C01D12B6803B96065616B2F60E3
:103174000029CBD004F14403994202D0284600F040
:10318400D5F900206063C2E7216A01232846B047CD
:10319400411CC7D12B68002BC4D01D2B01D0162B8A
:1031A40001D12F60B2E7A38943F04003A381AEE7C6
:1031B4000F69002FAAD0930718BF00230E6808BF19
:1031C4004B69F61B0F608B60002E9FDD33463A4639
:1031D4002846216AD4F828C0E047002806DCA389E1
:1031E4004FF0FF3043F04003A38190E70744361AC1
:1031F400EAE700BF0100402038B50B6905460C46DC
:1032040013B90025284638BD18B183690BB900F0FD
:1032140087F8144B9C421BD16C68B4F90C30002B1A
:10322400EFD0626ED00704D4990502D4A06D00F0EB
:1032340015F928462146FFF75DFF636E0546DA0758
:10324400E0D4A3899B05DDD4A06D00F008F9D9E78B
:10325400054B9C4201D1AC68DFE7044B9C4208BF9C
:10326400EC68DAE71440000834400008F43F000832
:10327400002310B50446C0E90033C0E90433836079
:1032840081814366C2818361194608225C30FFF75D
:1032940055FD054B24626362044BA362044BE36255
:1032A400044B236310BD00BFE53C0008073D000844
:1032B4003F3D0008633D0008014900F0AFB800BF7E
:1032C400FD310008682270B54D1E55430E4605F1C8
:1032D400740100F093F9044640B10021C0E90016DE
:1032E4000C30A06005F16802FFF728FD204670BD90
:1032F400014800F0B3B800BFC1040020014800F049
:10330400AEB800BFC1040020014800F0A7B800BF58
:10331400C2040020014800F0A2B800BFC20400208B
:1033240010B50446FFF7F0FFA3691BB1BDE81040D8
:10333400FFF7F0BFC4E912332365134B134A1B682C
:10334400A262A34208BF0123204608BFA36100F084
:103354001FF86060204600F01BF8A060204600F0D3
:1033640017F800220421E0606068FFF781FF012262
:103374000921A068FFF77CFF02221221E068FFF711
:1033840077FF0123A361D1E7EC3E0008BD320008BA
:10339400F8B50746FFF7ACFF1E4B1E68B36913B9B7
:1033A4003046FFF7BDFF4836D6E90134013B03D56B
:1033B40033680BB33668F7E7B4F90C50D5B9164B3C
:1033C40004F15800E360656600F047F8FFF796FFE4
:1033D40008222946C4E90155C4E904552560A561BC
:1033E40004F15C00FFF7AAFCC4E90D55C4E91255C9
:1033F4002046F8BD6834D9E704213846FFF762FF58
:10340400044630600028D5D1FFF778FF0C233B60D9
:10341400EEE700BFEC3E00080100FFFF2DE9F84392
:1034240006468846002700F14804D4E90195B9F11D
:10343400010905D52468002CF7D13846BDE8F88386
:10344400AB89012B07D9B5F90E30013303D02946D6
:103454003046C04707436835E9E77047704770470F
:1034640070B50E46B1F90E10144600291D4696B0EB
:1034740008DA0022B6F90C302A601A0610D44FF488
:1034840080630EE06A4600F091FC0028F1DB019AAB
:1034940002F47042A2F500535A425A412A60EEE700
:1034A40040230020236016B070BD00008B8973B5E3
:1034B4009D0706460C4607D504F1470323602361A4
:1034C4000123636102B070BD6A4601ABFFF7C8FF18
:1034D40000990546304600F091F848B9B4F90C302B
:1034E4009A05EFD423F0030343F00203A381E3E737
:1034F4000D4BB362A389206043F08003A381009B3A
:1035040020616361019B5BB13046B4F90E1000F099
:103514005FFC28B1A38923F0030343F00103A381D3
:10352400A0890543A581CDE7BD32000838B505461D
:10353400002940D051F8043C0C1F002BB8BFE418FC
:1035440000F076FC1C4A136833B9636014602846A3
:10355400BDE8384000F072BCA34208D920682118A5
:103564008B4201BF19685B6809182160EDE71A46B0
:103574005B680BB1A342FAD911685018A0420BD171
:1035840020680144501883421160E0D118685B68D8
:10359400014411605360DAE702D90C232B60D6E7AB
:1035A400206821188B4201BF19685B6809182160E3
:1035B40063605460CBE738BDC404002070B50E4E80
:1035C4000C463168054611B900F07AFB306021469B
:1035D400284600F075FB431C0AD0C41C24F00304E5
:1035E400A04207D0211A284600F06AFB013001D11D
:1035F4004FF0FF34204670BDC80400202DE9F0418F
:10360400CD1C25F0030508350C2D38BF0C25002DE5
:10361400074601DBA94205D90C2300263B6030464E
:10362400BDE8F0812E4E00F003FC33681C4634BB29
:1036340029463846FFF7C2FF431C04464DD134687F
:103644002646002E40D123683146384604EB030851
:1036540000F036FB80453AD1216803356D1A25F018
:10366400030508350C2D38BF0C2538462946FFF7CD
:10367400A5FF01302BD023682B4423600EE0226881
:10368400521B1ED40B2A16D96119A342256018BFF8
:103694005960636808BF316062514B60384604F179
:1036A4000B0600F0CBFB26F00706231DF21AB6D05A
:1036B4009B1BA350B3E76268A3420CBF32605A60FD
:1036C400ECE723466468B2E734467668B9E70C232E
:1036D40038463B6000F0B2FBA1E72560DEE700BF9F
:1036E400C4040020936810B4013B002B936007DAF4
:1036F4009469A34201DB0A2902D110BCFFF73ABC4A
:103704001368581C10601970084610BC7047F8B54F
:1037140006460F461446D518AC4201D1002007E0F6
:103724003A46304614F8011BFFF7DCFF431CF3D183
:10373400F8BD00002DE9F04F0D46144698460646A4
:103744009DB018B183690BB9FFF7EAFD894B9D421F
:103754001BD175686B6ED90705D4AB899A0502D461
:10376400A86DFFF77BFEAB891B0701D52B69EBB96D
:1037740029463046FFF750FCC0B16B6EDC070ED50E
:103784004FF0FF301DB0BDE8F08F7B4B9D4201D15F
:10379400B568DFE7794B9D4208BFF568DAE7AB8986
:1037A4009805EDD4A86DFFF75AFEE9E700230993C5
:1037B40020238DF8293030234FF00109CDF80C80F7
:1037C400DFF8BC818DF82A3023469A4613F8012B82
:1037D4000AB1252AF9D1BAEB040B0BD05B46224679
:1037E40029463046FFF793FF013000F0AA80099A7A
:1037F4005A4409929AF80030002B00F0A28000236A
:103804004FF0FF32CDE905230AF1010A049307932F
:103814008DF853301A935446052214F8011B584866
:1038240000F0F8FA049AD8B9D10644BF20238DF8E1
:103834005330130744BF2B238DF853309AF80030CC
:103844002A2B15D0544600204FF00A0C079A214623
:1038540011F8013B303B092B4ED9B0B1079214E06B
:10386400A0EB080309FA03F31343A2460493D2E737
:10387400039B191D1B680391002BBBBF5B4242F0E5
:10388400020207930793B8BF049223782E2B0CD11E
:1038940063782A2B35D1039B02341A1D1B680392CB
:1038A400002BB8BF4FF0FF330593DFF8D8A00322F5
:1038B4005046217800F0AEFA40B14023A0EB0A0054
:1038C40003FA00F0049B01340343049314F8011B2E
:1038D40006222D488DF8281000F09CFA00283FD0CD
:1038E4002A4B1BBB039B073323F0070308330393C3
:1038F400099B3B44099367E70C4601200CFB023209
:10390400A5E700234FF00A0C19460134059320461D
:1039140010F8012B303A092A03D9002BC5D00591A0
:10392400C3E7044601230CFB0121F0E703AB00933A
:103934002A463046164B04A9AFF300800746781C8C
:10394400D6D16B6ED90705D4AB899A0502D4A86D7C
:10395400FFF785FDAB895B063FF512AF099811E7C8
:1039640003AB00932A463046094B04A900F082F8C1
:10397400E4E700BF1440000834400008F43F0008A6
:10398400544000085A4000085E400008000000004F
:10399400133700082DE9F047164699468A680B69E3
:1039A40007469342B8BF1346336091F843200C4650
:1039B400DDF820800AB1013333602368990642BFE1
:1039C400336802333360256815F0060506D104F127
:1039D400190AE36832689B1AAB4228DC94F8432046
:1039E400131E226818BF012392062DD44946384677
:1039F40004F14302C047013020D02368E56803F096
:103A04000603042B18BF002532684FF00006A36894
:103A140008BFAD1A226908BF25EAE5759342C4BF01
:103A24009B1AED181A34B5421AD1002008E001237C
:103A3400524649463846C047013003D14FF0FF3063
:103A4400BDE8F0870135C4E73020E11881F8430070
:103A54005A1C94F845102244023382F84310C5E7F7
:103A64000123224649463846C0470130E6D0013694
:103A7400D9E700002DE9FF470F7E9146782F804655
:103A84000C469A460C9D01F1430207D8622F0AD8CE
:103A9400002F00F0D980582F00F0A48004F14205D3
:103AA40084F842703AE0A7F16303152BF6D801A11C
:103AB40051F823F0113B0008253B0008A13A000807
:103AC400A13A0008A13A0008A13A0008253B0008E1
:103AD400A13A0008A13A0008A13A0008A13A000856
:103AE400333C0008553B0008153C0008A13A000887
:103AF400A13A0008553C0008A13A0008553B0008CB
:103B0400A13A0008A13A00081D3C00082B681A1DC0
:103B14001B682A6004F1420584F842300123A4E0C2
:103B240020682968060601F104030AD50E682B6093
:103B3400002E03DA2D23764284F843300A235E48AC
:103B440019E00E6810F0400F2B6018BF36B2EFE793
:103B54002B682068191D2960010601D51E6802E042
:103B64004606FBD51E886F2F0CBF08230A23524834
:103B7400002184F843106568002DA8BF2168A56062
:103B8400A4BF21F0040121600EB9002D4DD01546CB
:103B9400B6FBF3F103FB1167C75D05F8017D3746FA
:103BA400BB420E46F4D9082B0BD12368DE0708D597
:103BB400236961689942DEBF302305F8013C05F1B1
:103BC400FF35521B22614B4621464046CDF800A0EA
:103BD40003AAFFF7DFFE01304CD14FF0FF3004B0F1
:103BE400BDE8F087344881F845702968236851F8A6
:103BF400046B29601D0614D5DF0744BF43F020037E
:103C040023601EB9236823F0200323601023AFE749
:103C1400236843F0200323607823284884F8453040
:103C2400E3E7590648BFB6B2E6E71546BBE72B689B
:103C34002668181D6169286035061B6801D519605E
:103C440002E07006FBD51980002315462361BAE70C
:103C54002B6800211A1D2A601D686268284600F03E
:103C6400D9F808B1401B606063682361002384F8BD
:103C74004330A8E72A46494640462369D0470130E5
:103C8400ABD023689B0713D4E068039B9842B8BF6A
:103C94001846A4E70123324649464046D04701303E
:103CA4009BD00135E36803995B1AAB42F2DCEBE786
:103CB400002504F11906F5E7654000087640000880
:103CC40038B50023054D044608462B60FDF7CEF8B1
:103CD400431C02D12B6803B1236038BDCC040020FF
:103CE40010B50C46B1F90E1000F0AEF80028ABBFC9
:103CF400636DA3891B1823F48053ACBF6365A38150
:103D040010BD2DE9F0411F468B890546DB050C46A5
:103D1400164605D502230022B1F90E1000F068F80A
:103D2400A389324623F48053A38128463B46B4F941
:103D34000E10BDE8F04100F017B810B50C46B1F90B
:103D44000E1000F055F8431CA38915BF606523F4D9
:103D5400805343F48053A38118BFA38110BDB1F9EC
:103D64000E1000F013B8000038B50446084611469A
:103D74000022054D2A601A46FDF72BF8431C02D198
:103D84002B6803B1236038BDCC04002038B5002370
:103D9400054D044608462B60FDF737F8431C02D155
:103DA4002B6803B1236038BDCC04002038B5002350
:103DB400064D0446084611462B60FDF731F8431CB6
:103DC40002D12B6803B1236038BD00BFCC040020AE
:103DD40038B50023054D044608462B60FDF72FF83F
:103DE400431C02D12B6803B1236038BDCC040020EE
:103DF40038B50446084611460022054D2A601A4685
:103E0400FDF727F8431C02D12B6803B1236038BDAA
:103E1400CC040020034610B5C9B2024493421846AC
:103E240001D1002003E0047801338C42F6D110BDA7
:103E34000148FFF713BB00BFC00400200148FFF78F
:103E44000EBB00BFC004002038B504460846114626
:103E54000022054D2A601A46FCF79EFF431C02D13E
:103E64002B6803B1236038BDCC040020F8B500BF33
:103E7400F8BC08BC9E467047F8B500BFF8BC08BC47
:043E84009E4670479F
:103E88005B25735D0A0000000D436F7272656374F1
:103E980020506F72740000000D57726F6E672050CB
:103EA8006F7274204E756D62657200000000040523
:103EB8000607080900000000000D000001020304C5
:103EC80005060708090A0B0C0D0E0F10000000006C
:103ED80000000000010203040607080900000000B2
:103EE80001020304CC0200200020202020202020F2
:103EF8002020282828282820202020202020202092
:103F080020202020202020202088101010101010A1
:103F180010101010101010101004040404040404ED
:103F28000404041010101010101041414141414187
:103F38000101010101010101010101010101010169
:103F48000101010110101010101042424242424279
:103F58000202020202020202020202020202020239
:103F680002020202101010102000000000000000E1
:103F78000000000000000000000000000000000039
:103F88000000000000000000000000000000000029
:103F98000000000000000000000000000000000019
:103FA8000000000000000000000000000000000009
:103FB80000000000000000000000000000000000F9
:103FC80000000000000000000000000000000000E9
:103FD80000000000000000000000000000000000D9
:103FE80000000000000000000000000000000000C9
:103FF80000000000000000000000000000000000B9
:1040080000000000000000000000000000000000A8
:104018000000000000000000000000000000000098
:104028000000000000000000000000000000000088
:104038000000000000000000000000000000000078
:10404800000000000000000000000000232D302BBD
:104058002000686C4C006566674546470030313281
:1040680033343536373839414243444546003031D8
:104078003233343536373839616263646566000037
:08408800CCC1FF7F0100000024
:044090000902000819
:04409400E50100083A
:10409800010000000D2D2D2D2D2D2D2D2D2D2D2D1B
:1040A8002D2D2D2D2D2D2D2D2D2D2D2D2D2D2D2D38
:1040B8002D2D2D2D2D2D2D2D2D2D2D2D2D2D2D2D28
:1040C8002D2D2D2D2D2D2D2D2D2D2D2D2D2D2D0A3B
:1040D800000000000D20202020202020202020206B
:1040E8002020202A2A20506F77657220426F617243
:1040F8006420506F727420436F6E74726F6C202A44
:104108002A20202020202020202020202020200AB3
:10411800000000000D2D2D2D2D2D2D2D2D2D2D2D9B
:104128002D2D2D2D2D2D2D2D2D2D2D2D2D2D2D2DB7
:104138002D2D2D2D2D2D2D2D2D2D2D2D2D2D2D2DA7
:104148002D2D2D2D2D2D2D2D2D2D2D2D2D2D2D0ABA
:10415800000000000D5B5041365D20203A204C499C
:104168004441525F494E5F4354524C0909090A00C1
:104178000D5B504231345D203A2057414B45325F48
:1041880031090909090A00000D5B504231325D20EE
:104198003A2057414B45325F32090909090A0000A4
:1041A8000D5B504231355D203A2057414B45315F18
:1041B80031090909090A00000D5B504231335D20BD
:1041C8003A2057414B45315F32090909090A000075
:1041D8000D5B5042395D20203A205057524F4E5FB8
:1041E8004C45445F43544C0909090A000D5B504291
:1041F800315D20203A204750555F494E5F43545265
:104208004C0909090A0000000D5B504331325D205A
:104218003A2046414E5F3132565F4F4E0909090A2E
:10422800000000000D5B504231315D203A205057AC
:10423800525F53485554444F574E0909090A000024
:104248000D5B5042365D20203A205643435F355679
:104258005F454E5F310909090A0000000D5B5042B5
:10426800305D20203A2041505F474154455741591D
:104278005F494E5F4354524C090A00000D5B50439E
:10428800355D20203A205643435F35565F454E5FE3
:10429800320909090A0000000D2D2D2D2D2D2D2D77
:1042A8002D2D2D2D2D2D2D2D2D2D2D2D2D2D2D2D36
:1042B8002D2D2D2D2D2D2D2D2D2D2D2D2D2D2D2D26
:1042C8002D2D2D2D2D2D2D2D2D2D2D2D2D2D2D2D16
:1042D8002D2D2D0A000000000D4558292054797015
:1042E800652027504136204827206F7220275042EA
:1042F8003132204C2720090A000000000D2D2D2DF9
:104308002D2D2D2D2D2D2D2D2D2D2D2D2D2D2D2DD5
:104318002D2D2D2D2D2D2D2D2D2D2D2D2D2D2D2DC5
:104328002D2D2D2D2D2D2D2D2D2D2D2D2D2D2D2DB5
:104338002D2D2D2D2D2D2D0A0D5B496E7075742098
:10434800436F6D6D616E645D203A20000024F400B7
:104358001000000001000000CC0200200000000056
:104368001440000834400008F43F00080000000032
:104378000000000000000000000000000000000035
:104388000000000000000000000000000000000025
:104398000000000000000000000000000000000015
:1043A8000000000000000000000000000000000005
:0C43B800000000000000000000000000F9
:0400000508000EE9F8
:00000001FF
